:100000000C9434000C943E000C943E000C943E0082
:100010000C943E000C943E000C943E000C943E0068
:100020000C943E000C943E000C943E000C943E0058
:100030000C943E000C943E000C943E000C943E0048
:100040000C943E000C943E000C943E000C943E0038
:100050000C943E000C943E000C943E000C943E0028
:100060000C943E000C943E0011241FBECFEFD8E04C
:10007000DEBFCDBF0E9440000C94F2000C94000043
:100080008AB181608AB98AB182608AB98AB1846092
:100090008AB9ECE7F0E080818F778083808180648B
:1000A000808380818F7D8083EAE7F0E080818062B9
:1000B0008083808180688083808180648083808168
:1000C0008460808380818D7F808380818E7F808328
:1000D000EAE7F0E0808180688083808180648083AB
:1000E000ECE7F0E080818E7F808380818D7F80834C
:1000F00080818B7F80838081877F8083809178005F
:1001000090917900853F914020F08BB182608BB94E
:1001100003C08BB18D7F8BB9EAE7F0E0808180610D
:1001200080838FE39CE90197F1F700C00000808194
:1001300080688083808180648083ECE7F0E0808148
:100140008E7F8083808182608083808184608083D1
:100150008081877F80838091780090917900853FAE
:10016000914020F08BB184608BB903C08BB18B7F41
:100170008BB9EAE7F0E08081806180838FE39CE9BE
:100180000197F1F700C00000808180688083808142
:1001900080648083ECE7F0E08081816080838081EF
:1001A0008260808380818B7F80838081877F808352
:1001B0008091780090917900853F914020F08BB13B
:1001C00081608BB903C08BB18E7F8BB9EAE7F0E019
:1001D0008081806180838FE39CE90197F1F700C003
:0801E000000076CFF894FFCF78
:00000001FF
